:1000000000000120191A0000411A0000431A0000E4
:10001000451A0000471A0000491A000000000000BD
:100020000000000000000000000000004B1A00006B
:100030004D1A0000000000004F1A0000511A000085
:1000400071120000531A0000F9180000531A000042
:10005000531A0000531A0000531A0000531A0000EC
:10006000531A0000531A0000531A0000531A0000DC
:10007000531A0000531A0000531A0000531A0000CC
:10008000531A00000D0F0000531A0000531A00000D
:100090004D0F0000531A0000531A0000531A0000BD
:1000A000531A0000531A0000531A0000531A00009C
:1000B000531A0000531A0000000000000000000066
:1000C000531A0000531A0000531A0000531A00007C
:1000D000531A0000531A0000531A000000000000D9
:1000E0000000000000000000000000000000000010
:1000F0000000000000000000000000000000000000
:1001000000000000000000000000000000000000EF
:1001100000000000000000000000000000000000DF
:1004000010B5054C237833B9044B13B10448AFF34E
:1004100000800123237010BD700000200000000048
:10042000B01F00000C4B43B10C480D4910B5AFF3A1
:1004300000800C48036823B910BD0A48036833B92B
:100440007047094B002BF7D0BDE810401847064B0A
:10045000002BF5D0184700BF00000000B01F0000BF
:10046000740000206C00002000000000154B002BE1
:1004700008BF134B9D46A3F5803A00218B460F46DB
:100480001348144A121A00F063F80F4B002B00D0E7
:1004900098470E4B002B00D0984700200021040005
:1004A0000D000D48002802D00C48AFF3008000F08A
:1004B0002BF82000290001F099FA00F011F800BF94
:1004C0000000080000000120000000000000000003
:1004D00070000020E4000020000000000000000088
:1004E00008B5074B044613B10021AFF30080054B5C
:1004F0001868836A03B19847204600F031F800BFBE
:1005000000000000A81F000070B50D4E0D4CA41B8C
:10051000A4100025A54209D10B4E0C4C01F038FD6A
:10052000A41BA4100025A54205D170BD56F82530A6
:1005300098470135EEE756F8253098470135F2E740
:100540006400002064000020640000206800002097
:1005500002440346934200D1704703F8011BF9E7B8
:10056000FEE700BF80B586B000AF78600023BB8196
:1005700000233B617B687B6107F10C031A46002175
:1005800044F2010000F018F800BF1837BD4680BDE6
:1005900080B400AFBFF34F8F0549054BDB6803F410
:1005A000E062044B1343CB60BFF34F8F00BFFDE706
:1005B00000ED00E00400FA0580B584B000AFF860FB
:1005C000B9607A60FFF7E4FF00BF1037BD4680BD19
:1005D00080B483B000AF0346FB71094997F9073037
:1005E0005B09FA7902F01F02012000FA02F241F8D9
:1005F000232000BF0C37BD465DF8047B704700BF69
:1006000000E100E080B483B000AF0346FB7109490C
:1006100097F907305B09FA7902F01F02012000FA0E
:1006200002F2203341F8232000BF0C37BD465DF8AD
:10063000047B704700E100E080B483B000AF034664
:10064000FB71094997F907305B09FA7902F01F023B
:10065000012000FA02F2403341F8232000BF0C379A
:10066000BD465DF8047B704700E100E080B483B0D4
:1006700000AF0346FB71094997F907305B09FA7926
:1006800002F01F02012000FA02F2603341F8232039
:1006900000BF0C37BD465DF8047B704700E100E009
:1006A00080B485B000AF7860254BFB607B68002B81
:1006B00040D0244B1A68F9687B6800BF00BF00BFB8
:1006C00000BF00BF00BF00BF00BF8A422FD000BFE5
:1006D00000BF00BF00BF00BF00BF00BF00BF00BF22
:1006E00000BF00BF00BF00BF00BF00BF00BF00BF12
:1006F00000BF00BF00BF00BF00BF00BF00BF00BF02
:1007000000BF00BF00BF00BF00BF00BF00BF00BFF1
:1007100000BF00BF00BF00BF00BF00BF00BF00BFE1
:1007200000BF00BF00BF00BF00BF00BF00BF013B54
:10073000C3D17B6000BF1437BD465DF8047B7047B2
:100740000024F4006000002080B500AF0D4B4FF492
:100750008032C3F844230B4B4FF48032C3F8042398
:100760001120FFF783FF1120FFF732FF054B012215
:100770001A602F20FFF794FF034B01221A7000BF6D
:1007800080BD00BF00100140AC00002080B500AF6C
:100790001120FFF737FF0F4B4FF48032C3F8482387
:1007A0000C4B4FF48032C3F808230A4B01225A60E5
:1007B0002F20FFF775FF074B01229A60064B00229E
:1007C0001A602F20FFF76CFF044B00221A7000BF45
:1007D00080BD00BF0010014098000020AC00002048
:1007E00080B400AF034BD3F804351846BD465DF81E
:1007F000047B70470010014080B483B000AF786084
:1008000039607A683B68D31A23F07F4318460C3767
:10081000BD465DF8047B704780B483B000AF78605C
:10082000044A7B68C2F8403500BF0C37BD465DF80E
:10083000047B70470010014080B487B000AF78603F
:10084000294B1B68002B03D1274A7B68136045E0C6
:100850007B681A68244B1B681B689A4210D8224B8D
:100860001B68214A126811687A6812688A1A1A602D
:100870001D4B1A687B68DA611B4A7B6813602DE0A8
:100880007B681B68FB60184B1B687B61164B1B6801
:100890003B6109E03B691B68FA68D31AFB603B695E
:1008A0007B613B69DB693B613B69002B04D03B69A1
:1008B0001A68FB689A42EDD33B69002B05D03B696F
:1008C0001A68FB68D21A3B691A607B68FA681A607A
:1008D0007B683A69DA617B697A68DA6100BF1C3744
:1008E000BD465DF8047B70479400002080B487B05B
:1008F00000AF7860234B1B687B617B693B6108E03C
:100900003A697B689A4208D03B697B613B69DB6945
:100910003B613B69002BF3D100E000BF3B69002B3A
:1009200029D07A693B699A4211D1164B1B68DB6961
:10093000144A1360134B1B68002B08D1124B012281
:100940009A60124B00221A60114B01221A703B6907
:100950001B68FB603B69DA697B69DA617B69DB698B
:100960003B613B69002B07D03B691A68FB681A445E
:100970003B691A6000E000BF1C37BD465DF8047B90
:10098000704700BF94000020001001409800002034
:10099000AD00002080B500AF1120FFF74DFE00BF75
:1009A00080BD80B500AF1420FFF746FE00BF80BDBC
:1009B00080B584B000AF78600F4B1B68002B11D05E
:1009C0000D4B1B687A6850697A689269114698479E
:1009D000F860FB68BB60BB68002B09D0B868FFF704
:1009E000C1FD05E07B685B697A68926910469847AB
:1009F00000BF1037BD4680BDA800002080B584B080
:100A000000AF2B4B1B68002B4ED000237B60FFF701
:100A1000E7FE0246274B1B6819461046FFF7ECFE1F
:100A2000B860234B1B68FB601DE0FB681A68BB685D
:100A30009A421CD8FB681B68BA68D31ABB60FB6873
:100A40001B687A6813447B60FB683B60FB68DB696A
:100A5000FB603B681B7C002B05D03B6800221A74AE
:100A60003868FFF7A5FFFB68002BDED100E000BF70
:100A7000114B1A78114B1B789A420CD10F4B1B78F3
:100A80000133DAB20D4B1A700C4B1B78022B02D1DA
:100A90000A4B00221A70094B1B781946084A7B68DA
:100AA00042F82130FFF77DFF00BF1037BD4680BD03
:100AB0009400002098000020A4000020A500002041
:100AC0009C00002080B483B000AF7860194B1A7886
:100AD000194B1B789A4223D0164B1B780133DAB29C
:100AE000144B1A70134B1B78022B02D1114B0022AE
:100AF0001A70104B1B781A46104B53F822207B6853
:100B00001A607B681A680E4B1B6813440C4A13600A
:100B10000B4B1B6823F07F43094A1360012303E05A
:100B20007B6800221A60002318460C37BD465DF82A
:100B3000047B7047A4000020A50000209C0000203A
:100B40009800002080B584B000AF244B1B78FB7365
:100B5000234B1B68BB602FE0204B5968FA7B134680
:100B60005B001344DB000B447B60FB7B0133FB73B6
:100B70001A4B9B78FA7B9A4201D10023FB737B6866
:100B80001B78022B02D0032B10D014E07B685B682B
:100B90001846FFF7ABFE0FE0114B1B683B603B684C
:100BA00000221A743B68DB690D4A13600C4B1B680A
:100BB000002BF1D100E000BF084B5B78FA7B9A4232
:100BC000CAD1074B1A68BB689A4214BF012300239D
:100BD000DBB218461037BD4680BD00BF8C00002038
:100BE0009400002080B489B000AFF860B9607A60EA
:100BF0000023FB6138E0214B1B68BB61BB691A68AD
:100C0000FB689A4206D9BB691A68FB68D21ABB69AD
:100C10001A602DE0BB691B68FA68D31AFB60BB69D8
:100C20001B68FA691344FB61BB6900221A60134B0D
:100C30001B687B61BB69DB69104A1360BB69DB68B9
:100C4000002B11D0BA68FB69134423F07F42BB69C3
:100C50005A60BB69DA68BB699A607B681A68BB69CD
:100C6000DA617B687A691A60044B1B68002BC2D179
:100C700000BF2437BD465DF8047B70479400002018
:100C800080B586B000AF7860504B1B683B6185E053
:100C90007B68002B05D07B687B617B69DB697B60AF
:100CA0003CE04B4B5A684A4B1B7819460B465B009D
:100CB0000B44DB001344FB60454B1B780133DAB275
:100CC000434B1A70424B1A78414B9B789A4202D19F
:100CD0003F4B00221A70FB685B687B61FB681B78E6
:100CE000012B5BD17B691B7C002B00D056E0FB689D
:100CF0009A687B695A60FB68DA687B699A60FB686E
:100D00001A697B69DA60FB685A697B699A61314BC1
:100D10001B78002B02D07B6900225A607B695A68DD
:100D20002D4B1B68D31A23F07F432C4A93420ED8D5
:100D30007B695A68284B1B6819461046FFF75CFD13
:100D400002467B699B681A447B691A6017E0224B54
:100D50001A687B695B6819461046FFF74DFDB8605D
:100D60007B699A68BB689A4206D97B699A68BB68B6
:100D7000D21A7B691A6002E07B6900221A607B69E3
:100D800000225A607B6900229A607B6901221A74F2
:100D90007B690022DA617869FFF74EFD7B68002BE2
:100DA0007FF476AF0A4B1A78094B5B789A427FF44E
:100DB0006FAF064B1A683B699A4214BF01230023A8
:100DC000DBB218461837BD4680BD00BF9400002036
:100DD0008C000020AD00002098000020FEFF7F0066
:100DE00090B589B000AF7860274B1B68002B44D0CA
:100DF000254B1B681B68FB61FFF7F2FCB861234BB6
:100E00001B687B617969B869FFF7F6FC0346033319
:100E10003B611F4B1B7883F00103DBB2002B01D039
:100E2000FFF792FC3A69FB69934238BF13467A692F
:100E300013447B617B6923F07F437B617869FFF713
:100E4000EBFCFFF7CDFCF860B969F868FFF7D4FC5C
:100E50000346DC1CB9697869FFF7CEFC03469C4267
:100E60000DD9FFF7BDFC03461846FFF7D5FC2F2030
:100E7000FFF716FCFFF78EFD01E0FFF787FC00BFD0
:100E80002437BD4690BD00BF94000020980000208C
:100E9000AC00002080B586B000AF00237B60184B0B
:100EA0001B683B61174B1B68FB603B461846FFF70E
:100EB00009FE0346FB72FFF745FE0346FB75FB7A0E
:100EC000002B07D03B683A1D39691846FFF78AFEA8
:100ED0000123FB757B681846FFF7D2FE0346002B03
:100EE00001D00123FB75FB7D002B02D0F868FFF7D2
:100EF00077FF054B00221A7000BF1837BD4680BD32
:100F00009800002094000020AD00002080B500AFC4
:100F10000D4B0022C3F840210B4B0022C3F84421A3
:100F2000094B0022C3F84821074B0022C3F84C218B
:100F3000054B0022C3F80021034B0022C3F8042113
:100F4000FFF75CFD00BF80BD0010014080B500AF21
:100F5000FFF7A0FF00BF80BD80B483B000AF786012
:100F60004FF0A04318460C37BD465DF8047B704730
:100F700080B584B000AF7860084611461A46034633
:100F8000FB700B46BB7013467B703B1D1846FFF78A
:100F9000E3FFF8607A68F978BB785B0019437B78E7
:100FA0009B0019433B7E1B0219433B7F1B041943E3
:100FB000FB6802F5E07243F8221000BF1037BD460F
:100FC00080BD80B584B002AF786000230193002318
:100FD00000930023012201217868FFF7C9FF00BFB9
:100FE0000837BD4680BD80B584B000AF78603B1D3A
:100FF0001846FFF7B1FFF8607B68012202FA03F39D
:101000001946F86800F04FF800BF1037BD4680BDA4
:1010100080B584B000AF78603B1D1846FFF79CFF99
:10102000F8607B68012202FA03F31946F86800F0C1
:1010300049F800BF1037BD4680BD80B584B000AF11
:1010400078603B1D1846FFF787FFF860FB68D3F810
:101050000435BB60BB68DA437B68012101FA03F306
:101060001A40FB68C3F808257B6801229A40BB68D8
:101070001A40FB68C3F80C2500BF1037BD4680BD81
:1010800080B582B000AF786039603B68002B03D137
:101090007868FFF7BDFF02E07868FFF7A4FF00BFA4
:1010A0000837BD4680BD80B483B000AF786039603A
:1010B0007B683A68C3F8082500BF0C37BD465DF869
:1010C000047B704780B483B000AF786039607B6880
:1010D0003A68C3F80C2500BF0C37BD465DF8047BA9
:1010E0007047000080B582B000AF7860054A7B6829
:1010F00013441B7801211846FFF7C2FF00BF0837D1
:10110000BD4680BDAC1F000080B582B000AF00239B
:101110007B6005E07868FFF7E5FF7B6801337B6063
:101120007B68032BF6D900BF0837BD4680BD0000A1
:1011300080B582B000AF7860054A7B6813441B78A5
:101140001846FFF77AFF00BF0837BD4680BD00BFD5
:10115000AC1F000080B582B000AF00237B6009E0C7
:10116000094A7B6813441B781846FFF72AFF7B68FF
:1011700001337B607B68032BF2D9FFF7C5FF00BF0B
:101180000837BD4680BD00BFAC1F000080B483B0EF
:1011900000AF78604FF080427B68C2F8083300BF30
:1011A0000C37BD465DF8047B704780B485B000AF56
:1011B0000346FB80FB8803F1804300221A60FB8812
:1011C00003F180431B68FB60FB6800BF1437BD461A
:1011D0005DF8047B704780B483B000AF0346FB80AA
:1011E000FB8803F180431B68002B14BF01230023FD
:1011F000DBB218460C37BD465DF8047B704780B4FF
:1012000085B000AF78607B681B68FB60FB68002BD3
:1012100003D0FB681A687B681A60FB6818461437AD
:10122000BD465DF8047B704780B584B000AF0346CF
:10123000FB71FB79002B02D10B4BFB6001E00B4BE8
:10124000FB60F868FFF7DBFFB860BB68002B05D0D8
:10125000BB685B68FA7910469847F2E700BF00BFA9
:101260001037BD4680BD00BFB8000020C000002080
:1012700080B500AF4FF48070FFF7ADFF0346002B41
:101280000CD04FF48070FFF790FF0120FFF77EFF36
:101290000D4B01225A700020FFF7C6FF4FF48270F9
:1012A000FFF799FF0346002B0CD04FF48270FFF735
:1012B0007CFF0220FFF76AFF034B01229A70012096
:1012C000FFF7B2FF00BF80BDB000002080B485B042
:1012D00000AF78600B467B807B887A6813440022DD
:1012E0001A607B887A6813441B68FB60FB6800BF48
:1012F0001437BD465DF8047B704780B483B000AFFF
:1013000078600B467B807B887A6813441B68002BCF
:1013100014BF01230023DBB218460C37BD465DF82D
:10132000047B704780B483B000AF786039607B681D
:10133000D3F804233B681340002B14BF0123002380
:10134000DBB218460C37BD465DF8047B704780B4AD
:1013500083B000AF786039607B683A68C3F80823CF
:1013600000BF0C37BD465DF8047B704780B485B084
:1013700000AF78607B68D3F88034FB607B68FA68E4
:10138000C3F88024FB6818461437BD465DF8047B1B
:10139000704780B483B000AF78607B68D3F81835AD
:1013A000DBB218460C37BD465DF8047B704780B44D
:1013B00083B000AF78600B46FB70FA787B68C3F8A7
:1013C0001C2500BF0C37BD465DF8047B704780B418
:1013D00083B000AF78600B46FB70FB787A681344EB
:1013E00001221A6000BF0C37BD465DF8047B7047D0
:1013F00080B485B000AF78600B467B807B887A68CC
:10140000134400221A607B887A6813441B68FB60CF
:10141000FB6800BF1437BD465DF8047B704780B49D
:1014200083B000AF78600B467B807B887A6813447A
:101430001B68002B14BF01230023DBB218460C37B6
:10144000BD465DF8047B704780B483B000AF786020
:1014500039607B68D3F800223B68DB431A407B6825
:10146000C3F8002200BF0C37BD465DF8047B70470F
:1014700080B485B000AF78607B68D3F88034FB60BF
:101480007B68FA68C3F88024FB6818461437BD46A9
:101490005DF8047B704780B483B000AF78607B68F0
:1014A000D3F84C3518460C37BD465DF8047B7047C1
:1014B00080B483B000AF78607B68D3F83C351846C1
:1014C0000C37BD465DF8047B704780B584B000AF33
:1014D000786039604FF48E717868FFF7F7FE3B68EB
:1014E0009B683A68928A92B213441B78FB733B68FC
:1014F0009B8A9BB201339AB23B689A82FB7B194666
:101500007868FFF754FF00BF1037BD4680BD90B527
:1015100083B000AF786039603B68DB7D002B08D179
:101520004FF484717868FFF7D1FE7868FFF731FFD8
:1015300016E04FF484717868FFF7C8FE3B68DB68FB
:101540003A68527ED2B29C187868FFF722FF0346B1
:1015500023703B685B7EDBB20133DAB23B685A76BC
:101560000C37BD4690BD80B588B000AFF8600B4623
:101570007A60FB7201233B74FB7A3B767B687B616C
:10158000FB685B68FA68116807F11002104698471B
:1015900000BF2037BD4680BD80B586B000AF786003
:1015A0000B46FB7000233B72FB783B747B689B68A7
:1015B000FB607B6800229A757B685B687A681168BB
:1015C00007F108021046984700BF1837BD4680BD96
:1015D00080B588B000AF786039604FF400717868EA
:1015E000FFF7A0FE0346002B38D04FF492717868C5
:1015F000FFF783FE0346002B30D04FF492717868DA
:10160000FFF764FE4FF401717868FFF7A0FE3B68B6
:101610009B7E83F00103DBB2002B03D004217868AA
:10162000FFF7D5FE02233B727868FFF79FFE034663
:101630007B613B68DB7D3B743B68DB68FB603B6840
:101640000022DA753B6800221A763B685B683A68CC
:10165000116807F108021046984754E004217868A1
:10166000FFF760FE0346002B4DD04FF4847178687D
:10167000FFF743FE0346002B45D039687868FFF733
:1016800046FF3B68DA7D3B685B7EDBB29A423AD12B
:101690003B681B7E002B1AD03B68DB68FB613B6814
:1016A0005B7EFB763B681A7E3B68DA753B681A699D
:1016B0003B68DA603B6800221A763B6800225A7663
:1016C000FB7EFA6919463868FFF74DFF1BE03B685F
:1016D0009B7E83F00103DBB2002B03D004217868EA
:1016E000FFF775FE4FF401717868FFF730FE3B6835
:1016F0000022DA753B685B7ED9B23B68DB681A462C
:101700003868FFF730FF4FF48E717868FFF7F5FD0A
:101710000346002B1BD03B689B8A9AB23B689B7D9B
:101720009BB29A4204D239687868FFF7CEFE0EE089
:101730004FF48E717868FFF7C9FD3B689B7D002BE5
:1017400005D03B689B7D19463868FFF725FF4FF4AD
:10175000A2717868FFF7D1FD0346002B1CD04FF42F
:10176000A2717868FFF7B2FD3B689B7E002B03D027
:1017700000217868FFF72BFE3B68DB7D002B0BD048
:101780003B680022DA753B685B7ED9B23B68DB6858
:101790001A463868FFF7E7FE00BF2037BD4680BD18
:1017A00080B588B000AF786039604FF49271786886
:1017B000FFF735FE0346002B23D04FF49271786873
:1017C000FFF716FE02233B727868FFF751FE0346CF
:1017D0007B617868FFF76CFE0346DBB23B743B68C5
:1017E000DB68FB603B680022DA753B6800221A76F2
:1017F0003B685B683A68116807F108021046984731
:101800003DE04FF488717868FFF709FE0346002B2E
:1018100035D04FF488717868FFF7EAFD7868FFF7F4
:1018200047FE0346FB773B68DB7DFA7F9A4226D171
:101830003B681B7E002B18D03B68DB68BB61202116
:101840007868FFF701FE3B681A7E3B68DA753B68F3
:101850001A693B68DA603B6800221A76FB7FBA6936
:1018600019463868FFF77FFE09E03B680022DA7509
:101870003B68DA68FB7F19463868FFF774FE4FF45F
:10188000A2717868FFF7CBFD0346002B16D04FF40A
:10189000A2717868FFF7ACFD3B68DB7D002B0DD0B3
:1018A0003B680022DA757868FFF702FE0346D9B27A
:1018B0003B68DB681A463868FFF755FE4FF49071B5
:1018C0007868FFF7ACFD0346002B11D04FF4907100
:1018D0007868FFF78DFD3B689B7D002B08D078680A
:1018E000FFF7D9FD0346DBB219463868FFF754FE0F
:1018F00000BF2037BD4680BD80B500AF074B1B7FC2
:10190000002B04D005490648FFF74AFF03E00349CE
:101910000348FFF75DFE00BF80BD00BFC40000208C
:101920000020004080B485B000AF7860254BFB609C
:101930007B68002B40D0244B1A68F9687B6800BF95
:1019400000BF00BF00BF00BF00BF00BF00BF8A4292
:101950002FD000BF00BF00BF00BF00BF00BF00BF4F
:1019600000BF00BF00BF00BF00BF00BF00BF00BF7F
:1019700000BF00BF00BF00BF00BF00BF00BF00BF6F
:1019800000BF00BF00BF00BF00BF00BF00BF00BF5F
:1019900000BF00BF00BF00BF00BF00BF00BF00BF4F
:1019A00000BF00BF00BF00BF00BF00BF00BF00BF3F
:1019B00000BF013BC3D17B6000BF1437BD465DF85B
:1019C000047B70470024F4006000002080B582B0E2
:1019D00000AF78607B684FF47A7202FB03F318461D
:1019E000FFF7A0FF00BF0837BD4680BD80B582B0BD
:1019F00000AFFFF7AFFB00237B6009E07B68184670
:101A0000FFF796FB6420FFF7E1FF7B6801337B6003
:101A10007B68032BF2DDEEE70649074A074B9B1A6A
:101A200003DD043BC858D050FBDC00F035F8FEF76E
:101A30001DFD0000BC1F0000000000207000002001
:101A4000FEE7FEE7FEE7FEE7FEE7FEE7FEE7FEE76E
:101A5000FEE7FEE780B400AFBFF34F8F0549054BAB
:101A6000DB6803F4E062044B1343CB60BFF34F8F9A
:101A700000BFFDE700ED00E00400FA0580B400AF10
:101A8000034B044A1A6000BFBD465DF8047B7047F3
:101A9000600000200090D00380B500AF00F038F95E
:101AA0000346002B02D08B4B8B4A1A6000F052F990
:101AB0000346002B06D0894A894B1B685B0B03F059
:101AC0000703136000F078F90346002B05D0854A20
:101AD000844BDB6823F08073D36000F08FF90346FA
:101AE000002B0ED04FF080430022C3F80C214FF0A2
:101AF00080430022C3F810214FF080430022C3F836
:101B0000382500F0ADF90346002B02D0764B0322B6
:101B10001A6000F0C7F90346002B0BD0734B052267
:101B20001A60734B01221A60724B00221A60724BCA
:101B30003F221A6000F0D8F90346002B76D06F4A96
:101B40004FF08053D3F80434C2F820356B4A4FF07D
:101B50008053D3F80834C2F82435684A4FF08053D4
:101B6000D3F80C34C2F82835644A4FF08053D3F8C8
:101B70001034C2F82C35614A4FF08053D3F8143436
:101B8000C2F830355D4A4FF08053D3F81834C2F8AC
:101B900034355A4A4FF08053D3F81C34C2F84035DC
:101BA000564A4FF08053D3F82034C2F84435534A94
:101BB0004FF08053D3F82434C2F848354F4A4FF0E1
:101BC0008053D3F82834C2F84C354C4A4FF0805338
:101BD000D3F82C34C2F85035484A4FF08053D3F82C
:101BE0003034C2F85435454A4FF08053D3F834347A
:101BF000C2F86035414A4FF08053D3F83834C2F808
:101C000064353E4A4FF08053D3F83C34C2F868350F
:101C10003A4A4FF08053D3F84034C2F86C35374A13
:101C20004FF08053D3F84434C2F8703500F07EF999
:101C30000346002B05D0324A324B1B6803F04F039A
:101C40001360314A304BD3F8883043F47003C2F844
:101C50008830BFF34F8FBFF36F8F4FF01023D3F84F
:101C60000032002B05DB4FF01023D3F80432002B99
:101C70002BDA264B0122C3F8042500BF234BD3F8EF
:101C80000034002BFAD04FF010231522C3F80022A5
:101C900000BF1E4BD3F80034002BFAD04FF01023B6
:101CA0001522C3F8042200BF184BD3F80034002BD0
:101CB000FAD0164B0022C3F8042500BF134BD3F80B
:101CC0000034002BFAD0FFF7C5FEFFF7D7FE00BFA8
:101CD00080BD00BF74C007400DF0ADBA3C050040A8
:101CE00044020010F0ED00E0A00500401056004056
:101CF00088560040185600401456004000C000406E
:101D0000E40E00405802001000ED00E000E0014049
:101D100080B400AF0C4B1B68DBB2062B0DD10B4B14
:101D20001B6803F00F03002B07D1094B1B6803F05E
:101D3000F003302B01D1012300E000231846BD46FB
:101D40005DF8047B704700BFE00F00F0E40F00F087
:101D5000E80F00F080B400AF144B1B68DBB2062B19
:101D60001DD1134B1B6803F00F03002B17D1114B30
:101D70001B6803F0F003302B01D1012310E00D4B61
:101D80001B6803F0F003402B01D1012308E0094B4D
:101D90001B6803F0F003502B01D1012300E0002366
:101DA0001846BD465DF8047B704700BFE00F00F0A9
:101DB000E40F00F0E80F00F080B400AF0C4B1B689C
:101DC000DBB2062B0DD10B4B1B6803F00F03002B6E
:101DD00007D1094B1B6803F0F003302B01D101231D
:101DE00000E000231846BD465DF8047B704700BF45
:101DF000E00F00F0E40F00F0E80F00F080B400AF57
:101E0000144B1B68DBB2062B1DD1134B1B6803F070
:101E10000F03002B17D1114B1B6803F0F003302B7D
:101E200001D1012310E00D4B1B6803F0F003402BA0
:101E300001D1012308E0094B1B6803F0F003502B8C
:101E400001D1012300E000231846BD465DF8047B64
:101E5000704700BFE00F00F0E40F00F0E80F00F063
:101E600080B400AF0C4B1B68DBB2062B0DD10B4BC3
:101E70001B6803F00F03002B07D1094B1B6803F00D
:101E8000F003302B01D1012300E000231846BD46AA
:101E90005DF8047B704700BFE00F00F0E40F00F036
:101EA000E80F00F080B400AF0C4B1B68DBB2062BD0
:101EB0000DD10B4B1B6803F00F03002B07D1094B0F
:101EC0001B6803F0F003302B01D1012300E0002355
:101ED0001846BD465DF8047B704700BFE00F00F078
:101EE000E40F00F0E80F00F080B400AF0C4B1B686B
:101EF000DBB2062B0DD10B4B1B6803F00F03002B3D
:101F000007D1094B1B6803F0F003502B01D10123CB
:101F100000E000231846BD465DF8047B704700BF13
:101F2000E00F00F0E40F00F0E80F00F080B400AF25
:101F3000144B1B68DBB2062B1DD1134B1B6803F03F
:101F40000F03002B17D1114B1B6803F0F003302B4C
:101F500001D1012310E00D4B1B6803F0F003402B6F
:101F600001D1012308E0094B1B6803F0F003502B5B
:101F700001D1012300E000231846BD465DF8047B33
:101F8000704700BFE00F00F0E40F00F0E80F00F032
:101F9000F8B500BFF8BC08BC9E467047F8B500BF56
:101FA000F8BC08BC9E4670470000002011121314B4
:041FB000000000002D
:081FB400B8E4FF7F010000000A
:101FBC000000000000000000000000000000000015
:101FCC000000000000000000000000000000000005
:101FDC0000000000000000000000000000000000F5
:101FEC0000000000000000000000000000000000E5
:101FFC0000000000000000000000000000000000D5
:10200C0000000000000000000000000000000000C4
:10201C000090D00325040000010400000000000023
:0400000300001A19C6
:00000001FF
